:020000040800F2
:10000000FFFF01200D2700084510000851100008CF
:100010005910000861100008691000080000000075
:100020000000000000000000000000007110000847
:100030007D10000800000000891000080129000858
:100040005D2700085D2700085D2700085D27000880
:100050005D2700085D2700085D2700085D27000870
:100060005D2700085D2700085D2700085D27000860
:100070005D2700085D2700085D2700085D27000850
:100080005D2700085D2700085D2700085D27000840
:100090005D2700085D2700085D2700085D27000830
:1000A0005D2700085D2700085D2700085D27000820
:1000B0005D2700085D2700085D2700085D27000810
:1000C0005D2700085D2700085D2700085D27000800
:1000D0005D2700085D2700085D2700085D270008F0
:1000E0005D2700085D2700085D2700085D270008E0
:1000F0005D2700085D2700085D2700085D270008D0
:100100005D2700085D2700085D2700085D270008BF
:100110005D2700085D2700085D2700085D270008AF
:100120005D2700085D2700085D2700085D2700089F
:100130005D2700085D2700085D2700085D2700088F
:100140005D2700085D2700085D2700085D2700087F
:100150005D2700085D2700085D2700085D2700086F
:100160005D2700085D2700085D2700085D2700085F
:100170005D2700085D2700085D27000800000000DB
:100180005D2700085D2700085D2700085D2700083F
:100190005D2700085D2700085D2700085D2700082F
:0C01A0005D2700085D2700085D270008AF
:1002000010B5054C237833B9044B13B10448AFF350
:1002100000800123237010BD400400200000000076
:10022000002A0008084B10B51BB108480849AFF375
:1002300000800848036803B910BD074B002BFBD0B2
:10024000BDE81040184700BF00000000002A000869
:1002500044040020400400200000000080B483B06B
:1002600000AF03463960FB7197F90730002B0BDABA
:100270000D49FB7903F00F03043B3A68D2B2120137
:10028000D2B20B441A7609E0084997F907303A6868
:10029000D2B21201D2B20B4483F800230C37BD4610
:1002A0005DF8047B704700BF00ED00E000E100E076
:1002B00080B582B000AF78607B68013BB3F1807F8E
:1002C00001D301230FE00A4A7B68013B53604FF0E2
:1002D000FF300F21FFF7C2FF054B00229A60044B4D
:1002E00007221A60002318460837BD4680BD00BFAC
:1002F00010E000E080B483B000AF78607A68134605
:100300005B00134418460C37BD465DF8047B70470C
:1003100080B584B000AF07F10803184600F0DEFA9C
:100320003B1D184600F05AFE00F052FB00F0A2FB05
:1003300000F02AFE00F004F802F062FAFEE700BFC7
:1003400080B500AF064B1B68064AA2FB03239B093E
:100350001846FFF7ADFF0346002B00D0FEE780BD37
:1003600000000020D34D621080B582B000AF0023A2
:10037000FB710848012101F03BF90346FB71FB7951
:10038000012B01D1012300E0002318460837BD46A8
:1003900080BD00BF0000024080B485B000AF78602F
:1003A0007B6803F00703FB600C4BDB68BB60BA683B
:1003B0004FF6FF031340BB60FB681A02BB68134390
:1003C00043F0BF6343F40033BB60044ABB68D360AF
:1003D0001437BD465DF8047B704700BF00ED00E0B8
:1003E00080B400AF044BDB6803F4E0631B0A1846DB
:1003F000BD465DF8047B704700ED00E080B483B03B
:1004000000AF0346FB71084997F907305B09FA7999
:1004100002F01F02012000FA02F241F823200C37FB
:10042000BD465DF8047B704700E100E080B483B016
:1004300000AF0346FB71094997F907305B09FA7968
:1004400002F01F02012000FA02F2203341F82320BB
:100450000C37BD465DF8047B704700BF00E100E04B
:1004600080B483B000AF0346FB710C4A97F90730A4
:100470005B09403352F82330FA7902F01F02012160
:1004800001FA02F21340002B01D0012300E0002307
:1004900018460C37BD465DF8047B704700E100E06C
:1004A00080B483B000AF0346FB71094997F9073068
:1004B0005B09FA7902F01F02012000FA02F24033D0
:1004C00041F823200C37BD465DF8047B704700BF20
:1004D00000E100E080B483B000AF0346FB7109493E
:1004E00097F907305B09FA7902F01F02012000FA40
:1004F00002F2603341F823200C37BD465DF8047BDF
:10050000704700BF00E100E080B483B000AF034655
:10051000FB710C4A97F907305B09803352F823309E
:10052000FA7902F01F02012101FA02F21340002BB6
:1005300001D0012300E0002318460C37BD465DF8CA
:10054000047B704700E100E080B483B000AF034655
:100550003960FB7197F90730002B0BDA0D49FB79F5
:1005600003F00F03043B3A68D2B21201D2B20B443B
:100570001A7609E0084997F907303A68D2B21201B1
:10058000D2B20B4483F800230C37BD465DF8047BE0
:10059000704700BF00ED00E000E100E080B483B0F0
:1005A00000AF0346FB7197F90730002B0ADA0D4ABA
:1005B000FB7903F00F03043B13441B7EDBB21B09E2
:1005C000DBB208E0084A97F90730134493F8003388
:1005D000DBB21B09DBB218460C37BD465DF8047B65
:1005E000704700BF00ED00E000E100E080B489B09A
:1005F00000AFF860B9607A60FB6803F00703FB6145
:10060000FB69C3F10703042B28BF0423BB61FB690B
:100610000433062B02D9FB69033B00E000237B6116
:10062000BB69012202FA03F3013B1A46BB681A4078
:100630007B699A407B69012101FA03F3013B19466A
:100640007B680B40134318462437BD465DF8047B96
:10065000704700BF80B489B000AFF860B9607A60BD
:100660003B60BB6803F00703FB61FB69C3F1070351
:10067000042B28BF0423BB61FB690433062B02D97A
:10068000FB69033B00E000237B617B69FA6822FA87
:1006900003F3BA69012101FA02F2013A1A407B68B8
:1006A0001A607B69012202FA03F3013B1A46FB68D8
:1006B0001A403B681A602437BD465DF8047B7047DA
:1006C00080B400AFBFF34F8F0549054BDB6803F4DF
:1006D000E062044B1343CB60BFF34F8FFEE700BFD4
:1006E00000ED00E00400FA0580B582B000AF78604C
:1006F0007B68013BB3F1807F01D301230FE00A4AFD
:100700007B68013B53604FF0FF300F21FFF71CFF68
:10071000054B00229A60044B07221A6000231846FA
:100720000837BD4680BD00BF10E000E080B582B054
:1007300000AF78607868FFF72FFE0837BD4680BDB0
:1007400080B586B000AF0346B9607A60FB730023C2
:100750007B61FFF745FE78617869B9687A68FFF7D1
:1007600045FF024697F90F3018461146FFF7ECFE99
:100770001837BD4680BD00BF80B582B000AF0346CC
:10078000FB7197F907301846FFF738FE0837BD466A
:1007900080BD00BF80B582B000AF0346FB7197F902
:1007A00007301846FFF742FE0837BD4680BD00BF40
:1007B00080B500AFFFF784FF80BD00BF80B582B079
:1007C00000AF78607868FFF78FFF03461846083758
:1007D000BD4680BD80B500AFFFF702FE0346184658
:1007E00080BD00BF80B584B000AFB9607A603B6067
:1007F0000346FB7397F90F301846FFF7CFFE034609
:100800001846B9687A683B68FFF724FF1037BD4681
:1008100080BD00BF80B582B000AF0346FB7197F981
:1008200007301846FFF73CFE0837BD4680BD00BFC5
:1008300080B582B000AF0346FB7197F907301846C8
:10084000FFF70EFE034618460837BD4680BD00BFC1
:1008500080B582B000AF0346FB7197F907301846A8
:10086000FFF738FE0837BD4680BD00BF80B582B0B7
:1008700000AF0346FB7197F907301846FFF744FEB7
:10088000034618460837BD4680BD00BF80B483B01C
:1008900000AF78607B68042B06D1094A084B1B68BF
:1008A00043F00403136005E0054A054B1B6823F081
:1008B000040313600C37BD465DF8047B704700BF2E
:1008C00010E000E080B500AF00F002F880BD00BF8E
:1008D00080B400AFBD465DF8047B704780B483B040
:1008E00000AF78607B6804221A700C37BD465DF853
:1008F000047B704780B582B000AF78607B681B785E
:10090000033B032B5ED801A252F823F03B090008F9
:100910001D090008590900088F090008002000F08F
:10092000F3FE2A4B1B78012B06D17B6805221A7037
:10093000264B00221A7046E045E0002000F014FF2C
:10094000224B1B78012B06D17B6804221A701F4BA7
:1009500000221A7037E036E0002000F005FF1B4B44
:100960001B78012B06D17B6803221A70174B0022DB
:100970001A700BE04FF4FA70002100F03FFF0346BD
:10098000002B03D07B6806221A701CE01BE00020BD
:1009900000F0BAFE0D4B1B78012B06D17B680322B9
:1009A0001A700A4B00221A700BE04FF4FA70002103
:1009B00000F024FF0346002B03D07B6805221A7049
:1009C00001E000E000BF0837BD4680BD60040020A4
:1009D00080B588B000AF234A224B1B6B43F0400325
:1009E0001363204B1B6B03F04003BB60BB681D4AC5
:1009F0001C4B1B6B43F0020313631A4B1B6B03F07E
:100A000002037B607B68174A164B1B6B43F00403A1
:100A10001363144B1B6B03F004033B603B6801231F
:100A20003B614FF4C043FB6000237B610323BB6148
:100A300007F10C030C48194600F02CFB4FF400534F
:100A4000FB6007F10C030948194600F023FB202343
:100A5000FB6007F10C030648194600F01BFB20372A
:100A6000BD4680BD0038024000180240000402402C
:100A70000008024080B586B000AF0E4A0D4B1B6BDC
:100A800043F0010313630B4B1B6B03F001033B604B
:100A90003B680023BB6001237B600023FB600323D2
:100AA0003B613B1D0448194600F0F4FA1837BD4677
:100AB00080BD00BF003802400000024080B400AF9B
:100AC000124A124B1B6843F0010313600F4B0022C4
:100AD0009A600E4A0D4B1B6823F0847323F4803315
:100AE00013600A4B0A4A5A60084A084B1B6823F4F1
:100AF00080231360054B0022DA60064B4FF0006242
:100B00009A60BD465DF8047B704700BF0038024024
:100B10001030002400ED00E080B487B000AF002367
:100B20003B6100237B610223FB600023BB60022347
:100B30007B60324B9B6803F00C033B613B69042BE9
:100B400007D0082B09D0002B3FD12D4B2D4A1A601E
:100B50003FE02B4B2C4A1A603BE0284B5B6803F4C8
:100B600080039B0DBB60254B5B6803F03F037B60FC
:100B7000BB68002B0DD0244A7B68B2FBF3F21F4BFD
:100B8000596847F6C0730B409B0903FB02F37B6176
:100B90000CE01C4A7B68B2FBF3F2184B596847F62D
:100BA000C0730B409B0903FB02F37B61134B5B6833
:100BB00003F440331B0C01335B00FB607A69FB6874
:100BC000B2FBF3F30E4A136003E00D4B0D4A1A60BB
:100BD00000BF0A4B9B6803F0F0031B090B4AD35C70
:100BE000DBB23B61064B1A683B6922FA03F3044A05
:100BF00013601C37BD465DF8047B70470038024027
:100C0000000000200024F40000127A0004000020FC
:100C100080B500AF0B4A0B4B1B6843F400731360A5
:100C2000084A084B1B6843F4806313600320FFF7F6
:100C30007DFD0F2000F040F800F032F80023184648
:100C400080BD00BF003C024080B500AF134B4FF0A9
:100C5000FF321A62114B00221A62104B4FF0FF3222
:100C60005A620E4B00225A620C4B4FF0FF321A614F
:100C70000A4B00221A61094B4FF0FF325A61074BB1
:100C800000225A61054B4FF0FF329A61034B00225C
:100C90009A6100F00BF80023184680BD003802402E
:100CA00080B400AFBD465DF8047B704780B400AFF0
:100CB000BD465DF8047B704780B582B000AF7860B8
:100CC00001F0F6FA0246094BA3FB02239B091846E2
:100CD000FFF774FD4FF0FF3079680022FFF730FD19
:100CE000002318460837BD4680BD00BFD34D6210B3
:100CF00080B400AF044B1B680133034A1360BD4648
:100D00005DF8047B704700BF5C04002080B400AF36
:100D1000034B1B681846BD465DF8047B704700BF57
:100D20005C04002080B584B000AF78600023FB60D5
:100D3000FFF7ECFFF86000BFFFF7E8FF0246FB6833
:100D4000D21A7B689A42F7D31037BD4680BD00BFE8
:100D500080B400AF044A044B1B6823F00203136005
:100D6000BD465DF8047B704710E000E080B400AF42
:100D7000044A044B1B6843F002031360BD465DF850
:100D8000047B704710E000E080B400AF024B1846CF
:100D9000BD465DF8047B70470000030180B400AFDE
:100DA000034B1B681B0C1846BD465DF8047B70475F
:100DB000002004E080B400AF044B1B68C3F30B03B6
:100DC0001846BD465DF8047B704700BF002004E074
:100DD00080B400AF044A044B5B6843F001035360E6
:100DE000BD465DF8047B7047002004E080B400AF8E
:100DF000044A044B5B6823F001035360BD465DF871
:100E0000047B7047002004E080B400AF044A044B28
:100E10005B6843F002035360BD465DF8047B704796
:100E2000002004E080B400AF044A044B5B6823F068
:100E300002035360BD465DF8047B7047002004E068
:100E400080B400AF044A044B5B6843F00403536072
:100E5000BD465DF8047B7047002004E080B400AF1D
:100E6000044A044B5B6823F004035360BD465DF8FD
:100E7000047B7047002004E080B485B000AF0123FC
:100E8000FB60FB6893FAA3F3BB60BB687B607B6885
:100E9000B3FA83F33B603B68DBB29B001A46054B19
:100EA00013441A46012313601437BD465DF8047BD2
:100EB000704700BF0004274280B485B000AF012313
:100EC000FB60FB6893FAA3F3BB60BB687B607B6845
:100ED000B3FA83F33B603B68DBB29B001A46054BD9
:100EE00013441A46002313601437BD465DF8047B93
:100EF000704700BF0004274280B485B000AF4FF4B4
:100F00008073FB60FB6893FAA3F3BB60BB687B60F4
:100F10007B68B3FA83F33B603B68DBB29B0003F171
:100F2000844303F51C131A46012313601437BD468E
:100F30005DF8047B704700BF80B485B000AF4FF40C
:100F40008073FB60FB6893FAA3F3BB60BB687B60B4
:100F50007B68B3FA83F33B603B68DBB29B0003F131
:100F6000844303F51C131A46002313601437BD464F
:100F70005DF8047B704700BF80B400AF00BFBD4682
:100F80005DF8047B704700BF80B483B000AF0D4BA9
:100F90000D4A1A600B4B00225A600C4B0C4A1A6027
:100FA0000C4B93F804341A46084B5A600A4B403BEA
:100FB0007B607B68054A53600C37BD465DF8047B57
:100FC000704700BF94080020182A000888040020F9
:100FD000242A00089C0800209C0C002080B483B0C8
:100FE00000AF78607B6802221A700C37BD465DF84E
:100FF000047B704780B582B000AF78607B681B7857
:10100000012B0FD0022B00D016E0FFF7ADF90346FD
:10101000012B06D10A4B01221A707B6801221A703B
:101020000AE009E0FFF7A0F90346002B03D17B6833
:1010300002221A70FFE700BF0837BD4680BD00BF1F
:101040006004002080B400AFBD465DF8047B7047AB
:1010500080B400AFFEE700BF80B400AFFEE700BF82
:1010600080B400AFFEE700BF80B400AFFEE700BF72
:1010700080B400AFBD465DF8047B704780B400AF1C
:10108000BD465DF8047B704780B400AFBD465DF897
:10109000047B704780B489B000AF7860396000236A
:1010A0007B6100233B610023BB610023FB6171E195
:1010B000FB69012202FA03F37B613B681A687B69D2
:1010C00013403B613A697B699A4240F060813B681A
:1010D0005B68022B03D03B685B68122B22D1FB6953
:1010E000DA087B68083253F82230BB61FB6903F0F1
:1010F00007039B001A460F239340DB43BA69134052
:10110000BB613B681B69FA6902F0070292009340D9
:10111000BA691343BB61FB69DA087B680832B969B5
:1011200043F822107B681B68BB61FB695B001A46B1
:1011300003239340DB43BA691340BB613B685B68A0
:1011400003F00303FA6952009340BA691343BB6189
:101150007B68BA691A603B685B68012B0BD03B68FF
:101160005B68022B07D03B685B68112B03D03B68A0
:101170005B68122B2FD17B689B68BB61FB695B00AE
:101180001A4603239340DB43BA691340BB613B68B3
:10119000DB68FA6952009340BA691343BB617B680C
:1011A000BA699A607B685B68BB61FB69012202FADD
:1011B00003F3DB43BA691340BB613B685B6803F030
:1011C00010031A09FB6902FA03F3BA691343BB61FE
:1011D0007B68BA695A607B68DB68BB61FB695B004E
:1011E0001A4603239340DB43BA691340BB613B6853
:1011F0009B68FA6952009340BA691343BB617B68EC
:10120000BA69DA603B685B6803F08053002B00F03A
:10121000BE80654A644B5B6C43F480435364624B0D
:101220005B6C03F48043FB60FB68604AFB699B08CE
:10123000023352F82330BB61FB6903F003039B00C8
:101240001A460F239340DB43BA691340BB617B68A6
:10125000574A934237D07B68564A934231D07B68D5
:10126000554A93422BD07B68544A934225D07B68E1
:10127000534A93421FD07B68524A934219D07B68ED
:10128000514A934213D07B68504A93420DD07B68F9
:101290004F4A934207D07B684E4A934201D10923BB
:1012A00012E00A2310E008230EE007230CE00623D7
:1012B0000AE0052308E0042306E0032304E00223F8
:1012C00002E0012300E00023FA6902F00302920029
:1012D0009340BA691343BB613449FB699B080233ED
:1012E000BA6941F823203C4B1B68BB613B69DB4377
:1012F000BA691340BB613B685B6803F48033002B21
:1013000003D0BA693B691343BB61334ABB691360BD
:10131000314B5B68BB613B69DB43BA691340BB611E
:101320003B685B6803F40033002B03D0BA693B6968
:101330001343BB61284ABB695360274B9B68BB6161
:101340003B69DB43BA691340BB613B685B6803F4EC
:101350008013002B03D0BA693B691343BB611E4A5B
:10136000BB6993601C4BDB68BB613B69DB43BA69BB
:101370001340BB613B685B6803F40013002B03D090
:10138000BA693B691343BB61134ABB69D360FB690C
:101390000133FB61FB690F2B7FF68AAE2437BD4614
:1013A0005DF8047B704700BF003802400038014000
:1013B000000002400004024000080240000C02400D
:1013C000001002400014024000180240001C0240BD
:1013D0000020024000240240003C014080B487B05D
:1013E00000AF7860396000233B610023FB6000237D
:1013F000BB6000237B61DAE07B69012202FA03F320
:101400003B613A683B691340FB60FA683B699A426A
:1014100040F0CA807B681A687B695B001946032329
:101420008B40DB431A407B681A607B69DA087B6972
:10143000D9087B68083153F821107B6903F0070352
:101440009B0018460F238340DB4319407B6808321A
:1014500043F822107B689A687B695B001946032376
:101460008B40DB431A407B689A607B685A687B69D3
:10147000012101FA03F3DB431A407B685A607B6861
:10148000DA687B695B00194603238B40DB431A4013
:101490007B68DA604A4A7B699B08023352F8233042
:1014A000BB607B6903F003039B001A460F23934044
:1014B000BA681340BB607B68424A934237D07B686E
:1014C000414A934231D07B68404A93422BD07B689B
:1014D0003F4A934225D07B683E4A93421FD07B68A7
:1014E0003D4A934219D07B683C4A934213D07B68B3
:1014F0003B4A93420DD07B683A4A934207D07B68BF
:10150000394A934201D1092312E00A2310E008234B
:101510000EE007230CE006230AE0052308E004237D
:1015200006E0032304E0022302E0012300E000239D
:101530007A6902F00302920003FA02F2BB689A424F
:1015400032D17B6903F003039B001A460F239340BB
:10155000BB601B487B699B0819497A699208023273
:1015600051F82210BA68D2430A40023340F82320CF
:101570001E491E4B1A68FB68DB4313400B601B4976
:101580001A4B5A68FB68DB4313404B601749174BF3
:101590009A68FB68DB4313408B601449134BDA688D
:1015A000FB68DB431340CB607B6901337B617B6964
:1015B0000F2B7FF621AF1C37BD465DF8047B7047CB
:1015C00000380140000002400004024000080240D0
:1015D000000C0240001002400014024000180240BB
:1015E000001C02400020024000240240003C014058
:1015F00080B485B000AF78600B467B807B681A6949
:101600007B881340002B02D00123FB7301E00023F1
:10161000FB73FB7B18461437BD465DF8047B7047AF
:1016200080B483B000AF78600B467B8013467B703C
:101630007B78002B03D07A887B689A6103E07B88F3
:101640001A047B689A610C37BD465DF8047B7047CD
:1016500080B483B000AF78600B467B807B685A69AA
:101660007B885A407B685A610C37BD465DF8047B25
:10167000704700BF80B485B000AF78600B467B80B8
:101680004FF48033FB607A88FB681343FB60FA6891
:101690007B68DA617A887B68DA61FA687B68DA618C
:1016A0007B68DB69FB607B68DB6903F48033002BBC
:1016B00001D0002300E0012318461437BD465DF831
:1016C000047B704780B582B000AF0346FB80084BB7
:1016D0005A69FB881340002B06D0054AFB885361EA
:1016E000FB88184600F006F80837BD4680BD00BFED
:1016F000003C014080B483B000AF0346FB800C3750
:10170000BD465DF8047B704780B582B000AF78605D
:101710007B68002B06D111484FF400510022FFF7DF
:101720007FFF18E07B68012B06D10C484FF4804105
:101730000022FFF775FF0EE07B68022B06D10848F8
:101740004FF400510022FFF76BFF04E00548202111
:101750000122FFF765FF0837BD4680BD0018024033
:10176000000402400008024080B582B000AF7860FB
:101770007B68002B06D111484FF400510122FFF77E
:101780004FFF18E07B68012B06D10C484FF48041D5
:101790000122FFF745FF0EE07B68022B06D10848C7
:1017A0004FF400510122FFF73BFF04E005482021E0
:1017B0000022FFF735FF0837BD4680BD0018024004
:1017C000000402400008024080B400AF094B1B68CF
:1017D0005A1C08490A60632B07D9064B00221A607D
:1017E000054B1B680133044A1360BD465DF8047B5A
:1017F000704700BF680400206404002080B582B0F8
:1018000000AF7860396000F01FF802460C4B1A6098
:101810000B4B1A680B493B6851F82330D21A7B688E
:101820009A4207D3064B1A6806493B6841F82320C1
:10183000012300E0002318460837BD4680BD00BFE5
:10184000640400206C04002080B500AFFFF75EFA4E
:101850000346184680BD00BF80B400AF1A4A1A4B39
:101860001B6843F081031360174B00229A60164AED
:10187000154B1B6823F0A16323F480331360124BD4
:1018800000225A601049104B5A68104B13434B60AA
:101890000D4B0022C3F884200B4A0B4BD3F8843045
:1018A00043F0005343F44053C2F88430064A064BD9
:1018B0001B6823F480231360034B0022DA60BD46CB
:1018C0005DF8047B704700BF003802401030000410
:1018D00080B598B000AF78600023FB657B681B681B
:1018E00003F00103002B6AD0A64B9B6803F00C03A6
:1018F000042B0BD0A34B9B6803F00C03082B12D1D5
:10190000A04B5B6803F48003002B0CD09D4B1B683D
:1019100003F40033002B05D07B685B68002B01D1FA
:10192000012324E24BE0984B00221A70FFF7EEF9F6
:10193000F8650AE0FFF7EAF90246FB6DD31A41F2B7
:101940008832934201D9032311E28E4B1B6803F4C2
:101950000033002BEED18C4A7B685B68DBB21370DE
:101960007B685B68002B15D0FFF7D0F9F8650AE0BB
:10197000FFF7CCF90246FB6DD31A41F2883293424D
:1019800001D90323F3E17F4B1B6803F40033002BE1
:10199000EED014E0FFF7BAF9F8650AE0FFF7B6F900
:1019A0000246FB6DD31A41F28832934201D90323D8
:1019B000DDE1744B1B6803F40033002BEED17B6830
:1019C0001B6803F00203002B7FD06E4B9B6803F073
:1019D0000C03002B0BD06B4B9B6803F00C03082B04
:1019E0002AD1684B5B6803F48003002B24D1654B3C
:1019F0001B6803F00203002B05D07B68DB68012B1A
:101A000001D00123B3E15F485E4B1B6823F0F8026D
:101A10007B681B69F821B965B96D91FAA1F1796507
:101A2000796D3965396DB1FA81F1F964F96CC9B232
:101A30008B401343036048E07B68DB68002B2ED0AB
:101A4000524B01221A60FFF761F9F86508E0FFF7D1
:101A50005DF90246FB6DD31A642B01D9032386E19D
:101A6000484B1B6803F00203002BF0D04548454B60
:101A70001B6823F0F8027B681B69F821B964B96C14
:101A800091FAA1F17964796C3964396CB1FA81F118
:101A9000F963F96BC9B28B401343036015E03B4B0C
:101AA00000221A60FFF732F9F86508E0FFF72EF917
:101AB0000246FB6DD31A642B01D9032357E1314B46
:101AC0001B6803F00203002BF0D17B681B6803F056
:101AD0000803002B30D07B685B69002B16D02C4BA1
:101AE00001221A60FFF712F9F86508E0FFF70EF916
:101AF0000246FB6DD31A642B01D9032337E1214B36
:101B00005B6F03F00203002BF0D015E0204B0022A6
:101B10001A60FFF7FBF8F86508E0FFF7F7F80246F0
:101B2000FB6DD31A642B01D9032320E1154B5B6FA6
:101B300003F00203002BF0D17B681B6803F0040361
:101B4000002B7BD00F4A0F4B1B6C43F08053136468
:101B50000C4B1B6C03F08053BB60BB680D4A0D4BF4
:101B60001B6843F480731360FFF7D0F8F86513E047
:101B7000FFF7CCF80246FB6DD31A642B0CD9032374
:101B8000F5E000BF00380240023802400000474242
:101B9000800E474200700040774B1B6803F480734F
:101BA000002BE5D0754B00221A70FFF7AFF8F865EF
:101BB0000AE0FFF7ABF80246FB6DD31A41F2883218
:101BC000934201D90323D2E06D4B1B6F03F0020354
:101BD000002BEED1694A7B689B68DBB213707B688F
:101BE0009B68002B15D0FFF791F8F8650AE0FFF726
:101BF0008DF80246FB6DD31A41F28832934201D927
:101C00000323B4E05E4B1B6F03F00203002BEED006
:101C100014E0FFF77BF8F8650AE0FFF777F8024673
:101C2000FB6DD31A41F28832934201D903239EE01F
:101C3000534B1B6F03F00203002BEED17B689B69B3
:101C4000002B00F093804E4B9B6803F00C03082B95
:101C500000F08A807B689B69022B6ED1494B002281
:101C60001A60FFF753F8F86508E0FFF74FF80246EF
:101C7000FB6DD31A642B01D9032378E0404B1B681A
:101C800003F00073002BF0D13D487B68DA697B6874
:101C90001B6A1A437B685B6A47F6C071B963B96B0C
:101CA00091FAA1F17963796B3963396BB1FA81F1FA
:101CB000F962F96AC9B28B401A437B689B6A5B0878
:101CC000013B4FF44031B962B96A91FAA1F17962EE
:101CD000796A3962396AB1FA81F1F961F969C9B28F
:101CE0008B401A437B68DB6A4FF07061B961B96958
:101CF00091FAA1F17961796939613969B1FA81F1B2
:101D0000F960F968C9B28B40134343601D4B01224F
:101D10001A60FEF7FBFFF86508E0FEF7F7FF0246E2
:101D2000FB6DD31A642B01D9032320E0144B1B68ED
:101D300003F00073002BF0D018E0124B00221A6061
:101D4000FEF7E4FFF86508E0FEF7E0FF0246FB6DF2
:101D5000D31A642B01D9032309E0094B1B6803F054
:101D60000073002BF0D101E0012300E000231846AE
:101D70006037BD4680BD00BF007000407038024033
:101D8000003802406000474280B584B000AF786000
:101D900039600023FB60A24B1B6803F00F023B6815
:101DA0009A4280F0A8809E4B3A68D2B21A709C4B3F
:101DB0001B6803F00F023B689A4201D0012369E1DE
:101DC0007B681B6803F00203002B08D09549954BF4
:101DD0009B6823F0F0027B689B6813438B607B68F1
:101DE0001B6803F00103002B00F031817B685B6806
:101DF000012B07D18B4B1B6803F40033002B1AD146
:101E0000012347E17B685B68022B03D07B685B683A
:101E1000032B08D1834B1B6803F00073002B01D107
:101E2000012337E107E07F4B1B6803F00203002B1F
:101E300001D101232EE17B497A4B9B6823F00302F9
:101E40007B685B6813438B60FEF760FFF8607B681C
:101E50005B68012B12D10AE0FEF758FF0246FB68CF
:101E6000D31A41F28832934201D9032312E16D4B18
:101E70009B6803F00C03042BEED1E8E07B685B6801
:101E8000022B12D10AE0FEF741FF0246FB68D31A8B
:101E900041F28832934201D90323FBE0614B9B68F6
:101EA00003F00C03082BEED1D1E07B685B68032BB9
:101EB0000ED10AE0FEF72AFF0246FB68D31A41F270
:101EC0008832934201D90323E4E0564B9B68F1E743
:101ED0000AE0FEF71BFF0246FB68D31A41F2883284
:101EE000934201D90323D5E04E4B9B6803F00C03CA
:101EF000002BEED1ABE07B681B6803F00203002BE4
:101F000008D04849474B9B6823F0F0027B689B68E8
:101F100013438B607B681B6803F00103002B00F008
:101F200089807B685B68012B07D13E4B1B6803F4FB
:101F30000033002B1AD10123ACE07B685B68022BD5
:101F400003D07B685B68032B08D1364B1B6803F01A
:101F50000073002B01D101239CE007E0314B1B688B
:101F600003F00203002B01D1012393E02D492D4BF7
:101F70009B6823F003027B685B6813438B60FEF76A
:101F8000C5FEF8607B685B68012B12D10AE0FEF7A2
:101F9000BDFE0246FB68D31A41F28832934201D952
:101FA000032377E01F4B9B6803F00C03042BEED157
:101FB00040E07B685B68022B12D10AE0FEF7A6FEC8
:101FC0000246FB68D31A41F28832934201D90323B7
:101FD00060E0144B9B6803F00C03082BEED129E062
:101FE0007B685B68032B0ED10AE0FEF78FFE02468A
:101FF000FB68D31A41F28832934201D9032349E0A6
:10200000084B9B68F1E70FE0FEF780FE0246FB6895
:10201000D31A41F28832934206D903233AE000BF33
:10202000003C0240003802401C4B9B6803F00C034C
:10203000002BE9D11A4B3A68D2B21A70184B1B68C0
:1020400003F00F023B689A4201D0012322E07B6833
:102050001B6803F00403002B08D010490F4B9B684A
:1020600023F4E0527B68DB6813438B607B681B685A
:1020700003F00803002B09D00849084B9B6823F4A0
:1020800060427B681B69DB0013438B600F20FEF707
:1020900013FE002318461037BD4680BD00380240AD
:1020A000003C024080B58CB000AFF860B9607A6047
:1020B000FB68002B27D1294A284B1B6B43F00103F7
:1020C0001363264B1B6B03F00103BB61BB694FF429
:1020D0008073FB6102233B620323BB6200237B62AC
:1020E0000023FB6207F11C031D481946FEF7D2FFCF
:1020F0001A481A4B9B6823F0EC62B9687B680B4363
:102100001343836027E0154A144B1B6B43F0040311
:102110001363124B1B6B03F004037B617B694FF469
:102120000073FB6102233B620323BB6200237B62DB
:102130000023FB6207F11C030A481946FEF7AAFFB9
:102140000648064B9B6823F078427B68D900BB6841
:102150000B43134383603037BD4680BD00380240D7
:10216000000002400008024080B400AF034B01228F
:102170001A60BD465DF8047B704700BF4C004742C3
:1021800080B400AF034B00221A60BD465DF8047BAB
:10219000704700BF4C00474280B491B000AF0023AD
:1021A0007B630023FB6300233B630023BB633D4B46
:1021B0009B6803F00C03042B06D0082B07D0002BE0
:1021C00066D1394BBB6366E0384BBB6363E0354B8C
:1021D0005B6803F03F037B63324B5B6803F480036F
:1021E000002B1CD0314A7B6BB2FBF3F22D4B5968AC
:1021F00047F6C0730B4047F6C071F962F96A91FA6D
:10220000A1F1B962B96A7962796AB1FA81F1396288
:10221000396AC9B2CB4003FB02F3FB631BE0224ADD
:102220007B6BB2FBF3F21F4B596847F6C0730B4050
:1022300047F6C071F961F96991FAA1F1B961B9691B
:1022400079617969B1FA81F139613969C9B2CB40F3
:1022500003FB02F3FB63134B5B6803F440334FF45F
:102260004032FA60FA6892FAA2F2BA60BA687A600A
:102270007A68B2FA82F23A603A68D2B2D340013355
:102280005B003B63FA6B3B6BB2FBF3F3BB6302E0B7
:10229000054BBB6300BFBB6B18464437BD465DF8BA
:1022A000047B7047003802400024F40000127A00DA
:1022B00080B584B000AFFFF76FFF01460F4B9B68FE
:1022C00003F0F003F022FA60FA6892FAA2F2BA6020
:1022D000BA687A607A68B2FA82F23A603A68D2B240
:1022E000D340074AD35C21FA03F3064A1360054B37
:1022F0001B6818461037BD4680BD00BF003802403D
:10230000302A00080000002080B584B000AFFFF73D
:10231000CFFF01460D4B9B6803F4E0534FF4E052AE
:10232000FA60FA6892FAA2F2BA60BA687A607A68D9
:10233000B2FA82F23A603A68D2B2D340044AD35C2D
:1023400021FA03F318461037BD4680BD003802401D
:10235000302A000880B584B000AFFFF7A9FF01461E
:102360000D4B9B6803F460434FF46042FA60FA68D7
:1023700092FAA2F2BA60BA687A607A68B2FA82F225
:102380003A603A68D2B2D340044AD35C21FA03F3EC
:1023900018461037BD4680BD00380240302A00087C
:1023A00080B493B000AF78607B680F221A60624BF4
:1023B0001B6803F48023002B03D07B6805225A603E
:1023C0000CE05D4B1B6803F48033002B03D07B686B
:1023D00001225A6002E07B6800225A60564B1B685B
:1023E00003F00103002B03D07B680122DA6002E0D6
:1023F0007B680022DA60504B1B6803F0F803F82278
:102400007A647A6C92FAA2F23A643A6CFA63FA6BE2
:10241000B2FA82F2BA63BA6BD2B223FA02F27B68E2
:102420001A61454B1B6F03F00403002B03D07B683C
:1024300005229A600CE0404B1B6F03F00103002B58
:1024400003D07B6801229A6002E07B6800229A60D8
:10245000394B5B6F03F00103002B03D07B68012233
:102460005A6102E07B6800225A61334B1B6803F01B
:102470008073002B03D07B6802229A6102E07B68A4
:1024800001229A612C4B5B6803F480027B68DA615D
:10249000294B5B6803F03F027B681A62264B5A683F
:1024A00047F6C073134047F6C0727A637A6B92FAAC
:1024B000A2F23A633A6BFA62FA6AB2FA82F2BA624A
:1024C000BA6AD2B223FA02F27B685A621A4B5B688C
:1024D00003F4403303F580335B004FF440327A62FB
:1024E0007A6A92FAA2F23A623A6AFA61FA69B2FA3E
:1024F00082F2BA61BA69D2B223FA02F27B689A62B6
:102500000D4B5B6803F070634FF070627A617A691B
:1025100092FAA2F23A613A69FA60FA68B2FA82F281
:10252000BA60BA68D2B223FA02F27B68DA624C3738
:10253000BD465DF8047B70470038024080B483B02C
:1025400000AF786039607B680F221A60114B9B687E
:1025500003F003027B685A600E4B9B6803F0F002A5
:102560007B689A600B4B9B6803F4E0527B68DA60EF
:10257000084B9B6803F46043DA087B681A61064BDA
:102580001B6803F00F023B681A600C37BD465DF80C
:10259000047B704700380240003C024080B500AF29
:1025A000054BDB6803F08003002B04D000F008F833
:1025B000024B80221A7080BD003802400E38024063
:1025C00080B400AFBD465DF8047B704770B50F4E18
:1025D0000F4D761BB61018BF002405D0013455F8F6
:1025E000043B9847A642F9D10A4E0B4D761B00F0EA
:1025F00007FAB61018BF002406D0013455F8043B82
:102600009847A642F9D170BD70BD00BF482A0008A6
:10261000482A0008502A0008482A0008024B13B133
:10262000024800F005B87047000000003D26000891
:10263000014600200246034600F016B838B5084BA4
:10264000084DED1AAC1018BFED1805D0013C55F837
:10265000043D9847002CF9D1BDE8384000F0D6B9C8
:10266000502A0008542A00082DE9F047254C256817
:10267000D5F848410646884692469946CCB36068EC
:102680001F2818DC431C7EB104EB80050121C5F82E
:1026900088A0D4F8887101FA00F21743022EC4F81A
:1026A0008871C5F808911ED00230636044F820801C
:1026B0000020BDE8F087144B03B34FF4C870AFF3AC
:1026C00000800446D0B1D5F84831002780E8880062
:1026D000C5F8484138460123C4F88871C4F88C71A4
:1026E000002EE1D0D0E7D4F88C110A43C4F88C2135
:1026F000DAE705F5A674C5F84841C0E74FF0FF30AA
:10270000BDE8F087442A000800000000DFF834D05C
:10271000002103E00C4B5B58435004310B480C4B39
:1027200042189A42F6D30B4A02E0002342F8043BD7
:10273000094B9A42F9D3FEF7C1F9FFF747FFFDF7BE
:10274000E7FD7047FFFF0120542A00080000002029
:102750004004002040040020A00C0020FEE7000000
:102760000000000000000000000000000000000069
:102770000000000000000000000000000000000059
:102780000000000000000000000000000000000049
:102790000000000000000000000000000000000039
:1027A0000000000000000000000000000000000029
:1027B0000000000000000000000000000000000019
:1027C0000000000000000000000000000000000009
:1027D00000000000000000000000000000000000F9
:1027E00000000000000000000000000000000000E9
:1027F00000000000000000000000000000000000D9
:1028000041484249424A434B434C444D444E454F54
:10281000DFF81481DFF81491DFF814A1DFF814B1A8
:10282000DFF814C1DFF814E101B4FEE7AFF3008074
:10283000AFF30080AFF30080AFF30080AFF3008010
:102840000000000000000000000000000000000088
:102850000000000000000000000000000000000078
:102860000000000000000000000000000000000068
:102870000000000000000000000000000000000058
:102880000000000000000000000000000000000048
:102890000000000000000000000000000000000038
:1028A0000000000000000000000000000000000028
:1028B0000000000000000000000000000000000018
:1028C0000000000000000000000000000000000008
:1028D00000000000000000000000000000000000F8
:1028E00000000000000000000000000000000000E8
:1028F00000000000000000000000000000000000D8
:102900002DE9F00FFEE70000111111112222222201
:1029100033333333444444445555555566666666EF
:10292000777777778888888899999999AAAAAAAA9F
:10293000BBBBBBBBCCCCCCCCDDDDDDDDFFEFCDABA1
:102940000000000000000000000000000000000087
:102950000000000000000000000000000000000077
:102960000000000000000000000000000000000067
:102970000000000000000000000000000000000057
:102980000000000000000000000000000000000047
:102990000000000000000000000000000000000037
:1029A0000000000000000000000000000000000027
:1029B0000000000000000000000000000000000017
:1029C0000000000000000000000000000000000007
:1029D00000000000000000000000000000000000F7
:1029E00000000000000000000000000000000000E7
:1029F00000000000000000000000000000000000D7
:102A0000F8B500BFF8BC08BC9E467047F8B500BFDB
:082A1000F8BC08BC9E467047AB
:102A18006D61696E5F74687265616400746872657F
:102A2800616420233100000000000000010203045B
:102A380001020304060708094300000018000020EB
:082A48001D260008250200080C
:042A50000102000877
:102A54000024F40000000000000000000102030450
:102A6400060708090000000000000000040300201D
:102A74006C030020D40300200000000000000000CC
:102A84000000000000000000000000000000000042
:102A9400000000000000000000000000402A0008C0
:102AA4000000000000000000000000000000000022
:102AB4000000000000000000000000000000000012
:102AC4000000000000000000000000000000000002
:102AD40000000000000000000000000000000000F2
:102AE40000000000000000000000000000000000E2
:102AF40000000000000000000000000000000000D2
:102B040000000000000000000000000000000000C1
:102B140001000000000000000E33CDAB34126DE65E
:102B2400ECDE05000B0000000000000000000000C7
:102B34000000000000000000000000000000000091
:102B44000000000000000000000000000000000081
:102B54000000000000000000000000000000000071
:102B64000000000000000000000000000000000061
:040000050800270DBB
:00000001FF
